:400000000080002011000000550500005505000008B5044B1A6803F53F5302331A6000F0A1FA00BFFA46004010B5054C237833B9044B13B10448AFF300800123237010BD28
:400040005081FF1F00000000E8150000084B10B51BB108490848AFF300800848036803B910BD074B002BFBD0BDE81040184700BF000000005481FF1FE8150000C880FF1FF8
:400080000000000008B562B600F03CFB00F01AFD01F036F900F076FD00F028FD01F0D6F90121002001F0E0F900F000FF0E4BA0221A70C0225A7100220C4B1A700C4801F050
:4000C000B3F800F067F800F089F800F0ABF8074B1B78012BFBD10621034800F06DFD0022024B1A70F3E700BF8C81FF1F9281FF1FF500000010B501F0BFF8204A1178204BAB
:40010000197052785A701B68002B02DA00221C4B1A601B4B1B68B3F5803F03DB4FF6FF72174B1A60164C206800F0E8FC154B18600212154B5A709870144B1A7822705B7823
:4001400063702368002B01DA002222600C4B1B68B3F5803F03DB4FF6FF72094B1A60084B186800F0CBFC074B18600212064BDA7018710122064B1A7010BD00BF8881FF1F97
:400180009481FF1F9881FF1F8C81FF1F8481FF1F9281FF1F38B541F6FF734FF480420121022001F0BBF8054600F0B0FF044602230246194600F0C4FF074A92B244F61061E0
:4001C000204600F0D1FF2146284600F071FF0121284600F025FF38BD8881FF1F38B541F6FF734FF480420121022001F071F9054600F08CFF044602230246194600F0A0FF3F
:40020000074A92B24CF2A871204600F0ADFF2146284600F04DFF0121284600F001FF38BD8481FF1F38B54FF4804341F6FF720121022001F06BF9054600F068FF04460123E3
:400240000246022100F07CFF4CF2A072064989B2204600F089FF2146284600F029FF0121284600F0DDFE38BD8881FF1FFEE700BFF0B40022174611E050F82760F3B226F04A
:40028000FF0608E001EB420511F812406D78A5550132013BDBB2002BF4D101371E2FEBD9F0BC7047094B1B78DBB203F00701084A11701B0901321370102302F22122137043
:4002C000703213704422034B1A707047CF0100496E5800407658004008B50A46002101F07AF908BD08B501F06BF908BD38B50024344B1C80502202331A70192502331D801C
:400300001823314A1370EF21023211800232137040F65F11023211800232137004222B492B48FFF7DFFF02222A4B1A7008224FF040231A70032103F500731970264B1B7860
:40034000DBB226490B70264B1A8041F25122023B1A800CE0234B1B7803F0010343EA440404F003044FF4F07001F0EEF8013D0DB1032CEFD115B90320FFF778FF1A4B4FF4BF
:4003800080721A8007221A70002218490A704820023108701A700222033B1A7004220A331A70134A137843F00F031370013A137843F001031370013A137843F0800313705C
:4003C00038BD00BF80400040864000409C040048004100400043004008010049A146004022420040254200400440004006400040A2430040012807D8044B53F82020184426
:40040000017A13780B431370704700BFEC150000012808D8044B53F820201844017A137823EA010313707047EC15000038B572B6344A137843F00403137000240BE0324879
:4004400063001A19510001440A46098AD068FFF743FF0134E4B2082CF1D92C494FF09040FFF706FF0A252A4B1D7004212948FFF733FF042228492948FFF734FF0421284800
:40048000FFF72AFF04212748FFF726FF04212648FFF722FF254A137843F0020313701032137843F002031370214C237843F040032370A2F58632513A137843F01003137048
:4004C0002A461C491C48FFF70DFF08221B491C48FFF708FF1B4A137843F0080313701A4D61232B70FFF702FF81232B700122174B1A70FFF7D7FE0E2221461548FFF7F2FEB1
:4005000038BD00BFE8460040EC1500007C0000488358004000760040A00400485076004008760040107600404076004003500140A043004088040048C051004094040048DB
:4005400012510040224300400048004004000840B043004008B501F007F803680C2B00D1FEE7FEE708B5104E104D16E029686B68AC68002204E051F8040B43F8040B04327E
:40058000A242F8D1E868002203E0002143F8041B04328242F9D11035013E002EE6D100F0E9FFFFF76FFDFEE701000000D83B000008B5114A114B1A60114A136843F40073F0
:4005C000136000230AE0032B03D80E4A52F8231000E00D490D4A42F8231001332F2BF2D90B4B1A780B4B1A70084A0B4B1A60FFF71DFF00F0FBFC08BD0004FA050CED00E0C6
:4006000014ED00E000000000550500000080FF1FBC760040C080FF1F08ED00E010B500F029FB074C0121207800F0FAFC0121607800F0F6FC002000F039FB00F0D1FA10BDC8
:400640006C81FF1F70B505460E464FF48043020C0121084600F0D2FA094C2070A07801230246314600F06CFD45F68232A9B2A07800F07AFDA178207800F01AFD70BD00BFC5
:400680006C81FF1F70B505460E464FF48043020C0121084600F0D0FA094C6070E07801230246314600F04CFD45F68232A9B2E07800F05AFDE178607800F0FAFC70BD00BFA8
:4006C0006C81FF1F10B500F019FB022000F0E0FA042000F003FB00F019FD084CA07000F015FDE070064C4FF47A612046FFF7AAFF4FF47A616018FFF7C5FF10BD6C81FF1FCF
:400700003016000008B5054B1B7923B9FFF7DAFF0122024B1A71FFF781FF08BD6C81FF1F10B59DF80840012C51D1013809282ED8DFE800F0052D2D052D2D0F192D230F2B5E
:4007400003D92548007840B222E02448007840B21EE00F2B03D92248007840B218E02148007840B214E00F2B03D91F48007840B20EE01E48007840B20AE00F2B03D91C483E
:40078000007840B204E01B48007840B200E0002001EB401101FB02F1C90B8AB20D2B0BD8C3F10E0289B211418AB2611E124800EB810101338B7005E0631E0F4901EB830395
:4007C0000F219970013C0C4B23F8242010BD002000F0D8FC10BD00BF180100491C010049190100491D0100491A0100491E0100491B0100491F0100497481FF1FF8B5074657
:4008000000F0AAFE06460D4D2B7843F003032B700B4C237843F0030323700A4B1F70032000F0B2FC2B7803F0FC032B70237803F0FC032370304600F093FEF8BDF846004026
:40084000F9460040925800400022324B1A7101285FD170B53822304B1A70042202331A70062201331A70002401331C7001331C703F2201331A7002331C7001331C70013385
:400880001C7001250A331D70502203F527631A700A2201331A702C2201331A7001331C70442203331A70482201331A7001331D70022602331E70122201331A70282201331E
:4008C0001A70EB2201331A705220FFF797FF5822124B1A7001331C70052205331A7001331E7001331C7001331C70204600F02CFA43F233320A4B1A602946284600F048FA65
:400900002946072000F0F8FA06491D2000F046FC70BD70477481FF1F004E0040945800409C81FF1F210B0000F0B583B0284D01272F70284E00247471102000F017FA102075
:4009400000F0C8FA07211D2000F03CFC0422224B1A7001331C7007331C70204A137843F0180313701E4B1C7003F2F5231C7001331C700A22A3F209331A7001331C70023305
:400980001C705B2205331A705E2201331A7004331C701422A3F68C231A70009710234FF4004248F6F0510220FFF7BAFE2B78013B06EB83039A780B4B1A702B78013B36F870
:4009C0002320094B1A802878FFF73EFF03B0F0BDCC80FF1F7481FF1F96580040075B0040935800400E4E00400C4E004070B500F0B3FD06462A4B1B782A4B1A7842F0010290
:400A00001A701A7842F010021A7010331A7842F001021A701A7842F010021A70224D2B7843F002032B70214C237843F0020323701F4A137843F003031370032000F0A4FBBE
:400A40002B7803F0FD032B70237803F0FD032370184A137843F0060313707A22164B1A70164A137843F0010313701032137843F0010313700F3A137843F0010313701032F5
:400A8000137843F0010313704FF000530C4A1360A2F5C0721360304600F062FD70BD00BFCC80FF1FAA430040F8460040F9460040915800407758004082580040A14300409F
:400AC00080E200E008B5084B9B794BB9064BDB7913F0FF0F01D1FFF727FF0122024B9A71FFF784FF08BD00BF7481FF1F024A137843F0010313707047004E0040064B9B6833
:400B0000C01A4FF47A7303FB00F0044B1B6890FBF3F000B2704700BF7481FF1F9C81FF1F704700BF7222084B1A70202201331A700622A3F261131A70472210331A7000220D
:400B40004F331A70704700BF8965004010B500F003FD04460A4A137843F0200313700132137843F010031370A2F58172137843F01003137000F02CFA204600F0F1FC10BD83
:400B80009965004008B5054B1B7823B9FFF7CAFF0122024B1A70FFF7D9FF08BD8081FF1F034B1B7813F0040FFAD1024B187070476864004048640040084B1B7833B9704741
:400BC000305DFFF7EDFF0134E4B203E070B50D4606460024AC42F3D370BD00BF8081FF1F054A137843F0080313701032137843F008031370704700BFA2430040F0B583B095
:400C000016461F460B4C012525700023019300930A460146284600F057FA3A463146207800F02CFA0221207800F016FA207803B0F0BD00BFCD80FF1FF0B583B016461F4636
:400C40000B4C022525700023019300930A460146284600F039FA3A463146207800F00EFA2946207800F0F8F9207803B0F0BD00BFCE80FF1F054A137843F004031370103284
:400C8000137843F004031370704700BFA8430040054B1A7802F0FD021A701A7800F0020010431870704700BF28580040014B1870704700BF825B0040064B1B78C3F38103D4
:400CC00003F19243063393F82831DBB2024A1370704700BF285800400A46004008B5064B1A7802F0F3021A701A7800F00C0010431870FFF7E1FF08BD2858004008B500203A
:400D0000074B187001331870064A137843F008031370FFF7E3FF0220FFF7BAFF08BD00BF28580040975A004010B5002404E02046FFF76EFB0134E4B2012CF8D9FF22014B9B
:400D40001A7010BDCF80FF1F10B50446FFF7ECFF2046FFF74FFB014B1C7010BDCF80FF1F014B188880B2704780400040034B1A7800F0F80010431870704700BF8240004017
:400D8000024B187800F00700704700BF8240004070B505460E46FFF7F3FF0446FFF7E0FFA84256D02B4B1B7803F0010294B900B185B938B9284B1D80284A137803F0BF031E
:400DC000137070BD254A137843F040031370224B1D8070BD22B3002321490B7001240F310C7004310B700C390B7803F07F030B701A4B1B7813F0080F00D08DB9194B1880CF
:400E00000721013B1970164B1B7813F0010FFAD110490B7803F0FE030B700021104B19700C4B1B7813F0010F0DD00E4B1D800EB1032200E001220A4B1A70094B1B7813F023
:400E4000010FFAD170BD044B1D8002490B7813430B7070BDA243004080400040824000400140004002400040704700BF024B1B68C3F8B400704700BF08ED00E04001C0B2D5
:400E8000014B1870704700BF1DE400E04FF00052014B1A60704700BF00E100E04FF00052014B1A60704700BF80E100E008B5FFF7F5FF0448FFF7DAFF0720FFF7DFFFFFF7B8
:400EC000E5FF08BD690E0000014B188880B2704700410040034B1A7800F0F80010431870704700BF02410040024B187800F00700704700BF0241004070B505460E46FFF759
:400F0000F3FF0446FFF7E0FFA84256D02B4B1B7803F0010294B900B185B938B9284B1D80284A137803F0BF03137070BD254A137843F040031370224B1D8070BD22B30023D0
:400F400021490B70012413310C7004390B7008390B7803F07F030B701A4B1B7813F0080F00D08DB9194B18800721013B1970164B1B7813F0010FFAD110490B7803F0FE0388
:400F80000B700021104B19700C4B1B7813F0010F0DD00E4B1D800EB1032200E001220A4B1A70094B1B7813F0010FFAD170BD044B1D8002490B7813430B7070BDA14300404D
:400FC00000410040024100400140004002400040054A137843F0020313701032137843F002031370704700BFA24300400B4A7F2313708021517007E0DA0002F1804202F5E9
:40100000F042013BDBB21370002BF5D1DB0003F1804303F5F04300221A707047D080FF1F172815D831B103010A495A5C42F020025A5405E0030107495A5C02F0DF025A5426
:401040000001044A835C43F00103835400207047012070471070004017280BD80001064A835C03F0F103490001F00E011943815400207047012070471070004041F6FF73FA
:40108000994201D14FF4005141F6FF739A4201D14FF40052172808D8C00000F1804000F5EC408180C280002070470120704700BF172805D8034B03EB0010417200207047AF
:4010C000012070471070004017281BD810B4C00000F1804404F5EC44D201D2B201F07F01114321709DF804201201D2B203F00F03134363709DF8083003F00F03A370002094
:40110000E07001E00120704710BC704710B500F023FA0A4B5B78182B0BD9084A1478013B5370E30003F1804303F5F0431B78137000E0FF2400F014FA204610BDD080FF1FA8
:4011400010F0800F0CD111F4704F0BD1C00000F1804000F5F04001808270C37000207047012070470120704710F0800F08D1C00000F1804000F5F0408180C2800020704788
:401180000120704701BE704708B5034B1B7A00FB03F000F0D9F908BDD880FF1F70B504460E46074B1D681F2802D90020FFF7EAFF04F01F04103455F8240045F8246070BDE1
:4011C00008ED00E038B504460D46072902D90020FFF7D8FF1F2C02D90020FFF7D3FF04F01F0000F1604000F564406D01EDB2057038BD00BF014B1B681864704708ED00E040
:401200004001C0B2014B1870704700BF00E400E00122014B1A60704700E100E00122014B1A60704780E100E010B50446FFF7F6FF2046FFF7DFFF0720FFF7E2FFFFF7E8FF9C
:4012400010BD00BF084A137843F0010313701032137843F00103137002F64D32137843F001031370704700BFA3430040014B1870704700BF034F0040014B1878704700BF3E
:40128000034F0040014B1880704700BF044F0040014B1880704700BF064F004008B5154A137803F0010313700232137803F0FC031370114B1A7802F0CF021A701A7842F06C
:4012C00030021A701A7802F0F0021A701A7842F00F021A70094A137843F0010313703120FFF7D0FF3120FFF7D3FF0820FFF7BEFF08BD00BF004F00400B4F0040014F0040F4
:4013000008B5054B1B7823B9FFF7C8FF0122024B1A70FFF797FF08BD8281FF1FF0B583B016461F460B4C0A2525700023019300932B460A4601462846FFF7C6FE3A463146E3
:401340002078FFF79BFE02212078FFF785FE207803B0F0BDE880FF1FF8B5244A137843F01003137002F50342DA32137803F0FE0313703F2308321370043213701C4D4FF457
:401380008074224629461B4800F01AF922462946194800F015F922461849194800F010F94FF4007422461749174800F009F922461649174800F004F9164C174E04F14007BD
:4013C000354620686168A268E3680FC510342E46BC42F5D10020114B187000F069F8012000F06EF8F8220E4B1A70F8BDA6430040B03A000000C4004000C50040703500003D
:4014000000C60040B038000000C00040B036000000C200407036000000C700408CC7004084C70040084A137843F0100313701032137843F01003137002F50342CA3213780C
:4014400043F0010313707047A643004008B5054B1B7823B9FFF780FF0122024B1A70FFF7E1FF08BD8381FF1F68B9104B1A7802F0CC021A701A780A431A701A780901C9B252
:4014800011431970704701280ED1084B1A7802F033021A7018788A00D2B202431A701A788901C9B211431970704700BFB0C7004000F01F00014B1870704700BF98C70040F4
:4014C00000F00F00014B1870704700BF9CC70040F0B583B016461F460B4C082525700023019300930A4601462846FFF7EDFD3A4631462078FFF7C2FD02212078FFF7ACFD81
:40150000207803B0F0BD00BFE980FF1FF0B583B016461F460B4D00242C700194009423460A4601462046FFF7CFFD3A4631462878FFF7A4FD02212878FFF78EFD287803B0A6
:40154000F0BD00BFEA80FF1F0230800803D000BF01380046FCD17047EFF3108072B6704780F31088704700BF014B1868704700BF4C81FF1F0E4B70B51E460E4C0025E41ACA
:40158000A410A54204D056F8253098470135F8E702F010FB084B094C1E46E41AA4100025A54204D056F8253098470135F8E770BDC03B0000C03B0000C03B0000C83B0000D2
:4015C00010B5431E0A44914204D011F8014B03F8014FF8E710BD03460244934202D003F8011BFAE77047000000000000035B00402443004040000000004F00400C0000512E
:4016000000401000205100405000F0510040100000000140001000140140000800400140000A004C0140000200500140200000007D7D7D7D7E7E7E7E7E7E7E7F7F7F7F7F6E
:401640007F8080808080808081818181818181828282828282828383838383838384848484848485858585858585868686868686868787878787878788888888888888896A
:401680008989898989898A8A8A8A8A8A8B8B8B8B8B8B8B8C8C8C8C8C8C8C8D8D8D8D8D8D8D8E8E8E8E8E8E8E8F8F8F8F8F8F8F9090909090909091919191919191929292D4
:4016C00092929292939393939393939494949494949495959595959595969696969696969797979797979798989898989898999999999999999A9A9A9A9A9A9A9B9B9B9B4A
:401700009B9B9B9C9C9C9C9C9C9C9C9D9D9D9D9D9D9D9E9E9E9E9E9E9E9F9F9F9F9F9F9FA0A0A0A0A0A0A0A0A1A1A1A1A1A1A1A2A2A2A2A2A2A2A3A3A3A3A3A3A3A3A4A4CD
:40174000A4A4A4A4A4A5A5A5A5A5A5A5A5A6A6A6A6A6A6A6A7A7A7A7A7A7A7A7A8A8A8A8A8A8A8A8A9A9A9A9A9A9A9AAAAAAAAAAAAAAAAABABABABABABABABACACACACAC68
:40178000ACACACADADADADADADADADAEAEAEAEAEAEAEAEAFAFAFAFAFAFAFAFB0B0B0B0B0B0B0B0B1B1B1B1B1B1B1B1B2B2B2B2B2B2B2B2B3B3B3B3B3B3B3B3B4B4B4B4B421
:4017C000B4B4B4B4B5B5B5B5B5B5B5B5B6B6B6B6B6B6B6B6B6B7B7B7B7B7B7B7B7B8B8B8B8B8B8B8B8B8B9B9B9B9B9B9B9B9B9BABABABABABABABABABBBBBBBBBBBBBBBBF8
:40180000BBBCBCBCBCBCBCBCBCBCBDBDBDBDBDBDBDBDBDBDBEBEBEBEBEBEBEBEBEBFBFBFBFBFBFBFBFBFBFC0C0C0C0C0C0C0C0C0C1C1C1C1C1C1C1C1C1C1C2C2C2C2C2C2F5
:40184000C2C2C2C2C3C3C3C3C3C3C3C3C3C3C4C4C4C4C4C4C4C4C4C4C4C5C5C5C5C5C5C5C5C5C5C6C6C6C6C6C6C6C6C6C6C6C7C7C7C7C7C7C7C7C7C7C7C8C8C8C8C8C8C81D
:40188000C8C8C8C8C8C9C9C9C9C9C9C9C9C9C9C9CACACACACACACACACACACACACBCBCBCBCBCBCBCBCBCBCBCBCCCCCCCCCCCCCCCCCCCCCCCCCCCDCDCDCDCDCDCDCDCDCDCD76
:4018C000CDCDCECECECECECECECECECECECECECFCFCFCFCFCFCFCFCFCFCFCFCFCFD0D0D0D0D0D0D0D0D0D0D0D0D0D0D0D1D1D1D1D1D1D1D1D1D1D1D1D1D1D1D2D2D2D2D2FD
:40190000D2D2D2D2D2D2D2D2D2D2D2D3D3D3D3D3D3D3D3D3D3D3D3D3D3D3D3D3D4D4D4D4D4D4D4D4D4D4D4D4D4D4D4D4D4D4D4D5D5D5D5D5D5D5D5D5D5D5D5D5D5D5D5D5BD
:40194000D5D5D6D6D6D6D6D6D6D6D6D6D6D6D6D6D6D6D6D6D6D6D6D6D7D7D7D7D7D7D7D7D7D7D7D7D7D7D7D7D7D7D7D7D7D7D7D7D8D8D8D8D8D8D8D8D8D8D8D8D8D8D8D8B1
:40198000D8D8D8D8D8D8D8D8D8D8D8D8D8D9D9D9D9D9D9D9D9D9D9D9D9D9D9D9D9D9D9D9D9D9D9D9D9D9D9D9D9D9D9D9D9D9D9D9DADADADADADADADADADADADADADADADAE4
:4019C000DADADADADADADADADADADADADADADADADADADADADADADADADADADADADADADADADADADADADADADADADADADBDBDBDBDBDBDBDBDBDBDBDBDBDBDBDBDBDBDBDBDBDB51
:401A0000DBDBDBDBDBDBDBDBDBDBDBDBDBDBDBDBDBDBDBDBDBDBDBDBDBDBDBDBDBDBDBDBDBDBDBDBDBDBDBDBDBDBDBDBDBDBDBDBDBDBDBDBDBDBDBDBDBDBDBDBDBDBDBDBE6
:401A4000DBDBDBDBDBDBDBDADADADADADADADADADADADADADADADADADADADADADADADADADADADADADADADADADADADADADADADADADADADADADADADADADADADADADADADADADF
:401A8000DAD9D9D9D9D9D9D9D9D9D9D9D9D9D9D9D9D9D9D9D9D9D9D9D9D9D9D9D9D9D9D9D9D9D9D9D8D8D8D8D8D8D8D8D8D8D8D8D8D8D8D8D8D8D8D8D8D8D8D8D8D8D8D801
:401AC000D8D7D7D7D7D7D7D7D7D7D7D7D7D7D7D7D7D7D7D7D7D7D7D7D7D6D6D6D6D6D6D6D6D6D6D6D6D6D6D6D6D6D6D6D6D6D6D5D5D5D5D5D5D5D5D5D5D5D5D5D5D5D5D55D
:401B0000D5D5D4D4D4D4D4D4D4D4D4D4D4D4D4D4D4D4D4D4D4D3D3D3D3D3D3D3D3D3D3D3D3D3D3D3D3D3D2D2D2D2D2D2D2D2D2D2D2D2D2D2D2D2D1D1D1D1D1D1D1D1D1D1F2
:401B4000D1D1D1D1D1D0D0D0D0D0D0D0D0D0D0D0D0D0D0D0CFCFCFCFCFCFCFCFCFCFCFCFCFCFCECECECECECECECECECECECECECDCDCDCDCDCDCDCDCDCDCDCDCDCCCCCCCCBF
:401B8000CCCCCCCCCCCCCCCCCCCBCBCBCBCBCBCBCBCBCBCBCBCACACACACACACACACACACACAC9C9C9C9C9C9C9C9C9C9C9C8C8C8C8C8C8C8C8C8C8C8C8C7C7C7C7C7C7C7C7C2
:401BC000C7C7C7C6C6C6C6C6C6C6C6C6C6C6C5C5C5C5C5C5C5C5C5C5C4C4C4C4C4C4C4C4C4C4C4C3C3C3C3C3C3C3C3C3C3C2C2C2C2C2C2C2C2C2C2C1C1C1C1C1C1C1C1C1F5
:401C0000C1C0C0C0C0C0C0C0C0C0BFBFBFBFBFBFBFBFBFBFBEBEBEBEBEBEBEBEBEBDBDBDBDBDBDBDBDBDBDBCBCBCBCBCBCBCBCBCBBBBBBBBBBBBBBBBBBBABABABABABABA58
:401C4000BABAB9B9B9B9B9B9B9B9B9B8B8B8B8B8B8B8B8B8B7B7B7B7B7B7B7B7B6B6B6B6B6B6B6B6B6B5B5B5B5B5B5B5B5B4B4B4B4B4B4B4B4B4B3B3B3B3B3B3B3B3B2B2E1
:401C8000B2B2B2B2B2B2B1B1B1B1B1B1B1B1B0B0B0B0B0B0B0B0AFAFAFAFAFAFAFAFAEAEAEAEAEAEAEAEADADADADADADADADACACACACACACACACABABABABABABABABAAAA94
:401CC000AAAAAAAAAAAAA9A9A9A9A9A9A9A8A8A8A8A8A8A8A8A7A7A7A7A7A7A7A7A6A6A6A6A6A6A6A5A5A5A5A5A5A5A5A4A4A4A4A4A4A4A3A3A3A3A3A3A3A3A2A2A2A2A261
:401D0000A2A2A1A1A1A1A1A1A1A0A0A0A0A0A0A0A09F9F9F9F9F9F9F9E9E9E9E9E9E9E9D9D9D9D9D9D9D9C9C9C9C9C9C9C9C9B9B9B9B9B9B9B9A9A9A9A9A9A9A999999994B
:401D4000999999989898989898989797979797979796969696969696959595959595959494949494949493939393939393929292929292929191919191919190909090904C
:401D800090908F8F8F8F8F8F8F8E8E8E8E8E8E8E8D8D8D8D8D8D8D8C8C8C8C8C8C8C8B8B8B8B8B8B8B8A8A8A8A8A8A89898989898989888888888888888787878787878758
:401DC0008686868686868685858585858585848484848484838383838383838282828282828281818181818181808080808080807F7F7F7F7F7F7E7E7E7E7E7E7E7D7D7D71
:401E00007D7D7D7D7C7C7C7C7C7C7C7B7B7B7B7B7B7A7A7A7A7A7A7A797979797979797878787878787877777777777777767676767676757575757575757474747474748B
:401E4000747373737373737372727272727272717171717171717070707070706F6F6F6F6F6F6F6E6E6E6E6E6E6E6D6D6D6D6D6D6D6C6C6C6C6C6C6C6B6B6B6B6B6B6B6AA3
:401E80006A6A6A6A6A6A69696969696969686868686868686767676767676766666666666666656565656565656464646464646463636363636363626262626262626161B0
:401EC0006161616161606060606060605F5F5F5F5F5F5F5E5E5E5E5E5E5E5E5D5D5D5D5D5D5D5C5C5C5C5C5C5C5B5B5B5B5B5B5B5A5A5A5A5A5A5A5A5959595959595958B1
:401F0000585858585858575757575757575756565656565656555555555555555554545454545454535353535353535352525252525252525151515151515150505050509C
:401F40005050504F4F4F4F4F4F4F4F4E4E4E4E4E4E4E4E4D4D4D4D4D4D4D4D4C4C4C4C4C4C4C4C4B4B4B4B4B4B4B4B4A4A4A4A4A4A4A4A4949494949494949484848484869
:401F8000484848474747474747474746464646464646464645454545454545454444444444444444444343434343434343424242424242424242414141414141414141401C
:401FC00040404040404040403F3F3F3F3F3F3F3F3F3E3E3E3E3E3E3E3E3E3D3D3D3D3D3D3D3D3D3D3C3C3C3C3C3C3C3C3C3B3B3B3B3B3B3B3B3B3B3A3A3A3A3A3A3A3A3AA6
:40200000393939393939393939393838383838383838383837373737373737373737363636363636363636363635353535353535353535343434343434343434343433330A
:4020400033333333333333333332323232323232323232323231313131313131313131313030303030303030303030302F2F2F2F2F2F2F2F2F2F2F2F2E2E2E2E2E2E2E2E3E
:402080002E2E2E2E2E2D2D2D2D2D2D2D2D2D2D2D2D2D2C2C2C2C2C2C2C2C2C2C2C2C2C2B2B2B2B2B2B2B2B2B2B2B2B2B2B2A2A2A2A2A2A2A2A2A2A2A2A2A2A2A2929292941
:4020C000292929292929292929292928282828282828282828282828282828272727272727272727272727272727272726262626262626262626262626262626262626250F
:4021000025252525252525252525252525252525252524242424242424242424242424242424242424242424232323232323232323232323232323232323232323232323A5
:402140002222222222222222222222222222222222222222222222222222222222212121212121212121212121212121212121212121212121212121212121212121212102
:40218000202020202020202020202020202020202020202020202020202020202020202020202020202020202020202020202020202020202020202020201F1F1F1F1F1F25
:4021C0001F1F1F1F1F1F1F1F1F1F1F1F1F1F1F1F1F1F1F1F1F1F1F1F1F1F1F1F1F1F1F1F1F1F1F1F1F1F1F1F1F1F1F1F1F1F1F1F1F1F1F1F1F1F1F1F1F1F1F1F1F1F1F1F1F
:402200001F1F1F1F1F1F1F1F1F1F1F1F1F1F1F1F1F1F1F1F1F1F1F2020202020202020202020202020202020202020202020202020202020202020202020202020202020B5
:402240002020202020202020202020202020202020212121212121212121212121212121212121212121212121212121212121212121212122222222222222222222222223
:402280002222222222222222222222222222222222232323232323232323232323232323232323232323232323242424242424242424242424242424242424242424242557
:4022C000252525252525252525252525252525252525262626262626262626262626262626262626262727272727272727272727272727272727282828282828282828284B
:402300002828282828282929292929292929292929292929292A2A2A2A2A2A2A2A2A2A2A2A2A2A2A2B2B2B2B2B2B2B2B2B2B2B2B2B2B2C2C2C2C2C2C2C2C2C2C2C2C2C2D0D
:402340002D2D2D2D2D2D2D2D2D2D2D2D2E2E2E2E2E2E2E2E2E2E2E2E2E2F2F2F2F2F2F2F2F2F2F2F2F30303030303030303030303031313131313131313131313232323294
:4023800032323232323232323333333333333333333333343434343434343434343435353535353535353535363636363636363636363637373737373737373737383838EE
:4023C00038383838383838393939393939393939393A3A3A3A3A3A3A3A3A3B3B3B3B3B3B3B3B3B3B3C3C3C3C3C3C3C3C3C3D3D3D3D3D3D3D3D3D3D3E3E3E3E3E3E3E3E3E17
:402400003F3F3F3F3F3F3F3F3F4040404040404040404141414141414141414242424242424242424343434343434343444444444444444444454545454545454546464614
:402440004646464646464747474747474747484848484848484849494949494949494A4A4A4A4A4A4A4A4B4B4B4B4B4B4B4B4C4C4C4C4C4C4C4C4D4D4D4D4D4D4D4D4E4EEC
:402480004E4E4E4E4E4E4F4F4F4F4F4F4F4F5050505050505050515151515151515252525252525252535353535353535354545454545454555555555555555556565656A5
:4024C000565656575757575757575758585858585858595959595959595A5A5A5A5A5A5A5A5B5B5B5B5B5B5B5C5C5C5C5C5C5C5D5D5D5D5D5D5D5E5E5E5E5E5E5E5E5F5F41
:402500005F5F5F5F5F6060606060606061616161616161626262626262626363636363636364646464646464656565656565656666666666666667676767676767686868C4
:4025400068686868696969696969696A6A6A6A6A6A6A6B6B6B6B6B6B6B6C6C6C6C6C6C6C6D6D6D6D6D6D6D6E6E6E6E6E6E6E6F6F6F6F6F6F6F70707070707071717171713A
:402580007171727272727272727373737373737374747474747474757575757575757676767676767777777777777778787878787878797979797979797A7A7A7A7A7A7AA5
:4025C0007B7B7B7B7B7B7C7C7C7C7C7C7C7D7D7D8D8F8B87898C8D8D90928E898B8E8E8E91938E8A8B8E8E8F92938F8A8C8F8F8F9394908C8E9192929697938F9194959546
:40260000989A969193969696999B969293969696999A9692939697979A9C9793959899999D9E9A96989B9B9C9FA19C98999D9D9DA0A19D98999C9C9C9FA19C98999D9D9D4A
:40264000A0A29D999B9E9F9FA2A4A09C9DA1A1A1A5A6A29D9FA2A2A2A5A6A29D9EA1A1A1A4A6A19D9EA1A1A1A5A6A29E9FA3A3A3A7A8A4A0A1A5A5A5A8AAA5A1A2A6A6A6E4
:40268000A9AAA5A1A2A5A5A5A8A9A4A0A1A4A4A4A8A9A5A1A2A5A6A6A9ABA7A2A4A7A7A7ABACA8A3A5A8A8A8ABACA7A3A4A7A6A6A9AAA6A1A3A6A6A6A9AAA6A2A3A7A7A795
:4026C000AAACA8A3A5A8A8A8ACADA9A4A5A8A8A8ABACA8A3A4A7A7A7AAABA6A2A3A6A6A6A9AAA6A2A3A7A7A7AAACA7A3A5A8A8A8ABADA8A4A5A8A8A8ABACA7A2A4A6A6A605
:40270000A9AAA5A1A2A5A5A5A8AAA5A1A2A6A6A6A9ABA6A2A4A7A7A7AAABA7A3A4A7A7A6A9AAA6A1A2A5A5A5A8A9A4A0A1A4A4A4A7A8A49FA1A4A4A4A8A9A5A1A2A5A5A543
:40274000A9AAA5A1A2A5A5A5A8A9A4A0A1A4A3A3A6A7A39E9FA2A2A2A5A7A29E9FA3A3A3A6A8A39FA1A4A4A4A7A8A4A0A1A4A4A4A6A8A39E9FA2A2A2A5A6A19D9EA1A1A18D
:40278000A4A5A19D9EA1A2A2A5A7A29EA0A3A3A3A6A7A39FA0A3A3A3A6A7A29E9FA2A1A1A4A5A19C9DA0A0A1A4A5A19C9EA1A1A2A5A6A29E9FA3A3A3A6A8A39FA0A3A3A39A
:4027C000A6A7A29E9FA2A2A2A5A6A19D9EA1A1A1A4A6A19D9FA2A2A2A6A7A39FA0A4A4A4A7A9A4A0A1A4A4A4A7A8A49FA0A3A3A3A6A7A39FA0A3A3A3A6A8A39FA1A4A4A523
:40280000A8AAA5A1A3A6A6A7AAABA7A3A4A7A7A7AAABA7A2A3A6A6A6A9AAA6A2A3A6A6A6AAABA7A3A4A8A8A8ACADA9A5A6AAAAAAAEAFABA6A8ABABABAEAFABA6A8ABABAA9C
:40284000AEAFAAA6A7ABABABAEB0ABA7A9ACADADB0B2AEAAABAFAFAFB3B4B0ACADB0B0B0B3B4B0ACADB0B0B0B3B4B0ABADB0B0B0B4B5B1ADAEB2B2B3B6B8B4B0B1B5B5B585
:40288000B8BAB6B1B3B6B6B6B9BBB6B2B3B6B6B6B9BAB6B2B3B6B6B7BABBB7B3B5B8B9B9BCBEBAB6B7BBBBBBBFC0BCB8B9BCBCBDC0C1BDB8B9BCBCBCBFC1BCB8B9BDBDBDD0
:4028C000C0C2BEBABBBFBFBFC3C4C0BCBEC1C2C2C5C7C2BEC0C3C3C3C6C7C3BEC0C3C3C3C6C7C3BEC0C3C3C3C7C8C4C0C1C5C5C5C9CAC6C2C4C7C8C8CBCDC8C4C5C9C9C900
:40290000CCCDC9C4C5C8C8C8CBCDC8C4C5C8C9C9CCCDC9C5C7CACACBCED0CCC8C9CCCDCDD0D2CDC9CACECECED1D2CDC9CACDCDCDD0D1CDC8CACDCDCDD0D2CEC9CBCECECFB7
:40294000D2D4D0CBCDD0D1D1D4D5D1CDCED1D1D1D4D5D1CCCDD0D0D0D3D4D0CBCDD0D0D0D3D4D0CCCDD1D1D1D5D6D2CECFD3D3D3D6D7D3CFD0D3D3D3D6D7D2CECFD2D2D20D
:40298000D5D6D1CDCED1D1D1D4D6D1CDCED2D2D2D5D7D3CED0D3D3D3D7D8D3CFD0D3D3D3D6D7D2CECFD2D2D1D4D5D1CCCDD0D0D0D4D5D0CCCED1D1D1D4D6D2CDCFD2D2D2A9
:4029C000D5D6D2CECFD2D2D1D4D5D1CCCDD0D0CFD2D3CFCACBCECECED1D2CECACBCECECED2D3CFCACCCFCFCFD2D3CFCACCCECECED1D2CDC9CACCCCCCCFD0CBC6C8CACACA3B
:402A0000CDCFCAC6C7CACACACECFCBC6C8CBCBCBCECFCBC6C7CACACACCCDC9C4C5C8C7C7CACBC6C2C3C6C5C5C8CAC5C1C2C5C5C5C8CAC5C1C2C6C6C6C9CAC5C1C2C5C4C4AD
:402A4000C7C8C3BEBFC2C2C2C4C5C1BCBDC0C0C0C3C4BFBBBCBFC0C0C3C4C0BBBDC0C0C0C3C4BFBBBCBFBFBEC1C2BDB9BABCBCBCBEBFBBB6B7BABABABDBEBAB5B6BABABAC2
:402A8000BDBEBAB6B7BABABABDBEBAB5B6B9B9B9BBBCB8B3B4B7B6B6B9BAB5B0B2B4B4B4B7B8B4B0B1B4B4B4B7B9B4B0B1B4B5B5B8B9B4B0B1B4B4B3B6B7B2AEAFB1B1B1A9
:402AC000B4B5B0ABADAFAFAFB2B4AFABACAFAFAFB3B4B0ABADB0B0B0B3B4B0ABACAFAFAFB2B3AEA9AAADADADB0B1ACA7A9ACABABAEB0ABA7A8ACACACAFB0ACA8A9ACACAD5C
:402B0000B0B1ACA8A9ACACACAFB0ABA6A7AAAAAAADAEA9A5A6A9A9A9ACADA9A4A6A9A9A9ADAEAAA6A7AAAAAAAEAFAAA6A7AAAAAAADAEA9A5A6A9A8A8ABACA8A3A4A7A7A728
:402B4000AAACA8A3A5A8A8A8ACADA9A5A6A9A9AAADAEAAA5A6A9A9A9ACADA9A4A5A8A8A8ABACA7A3A4A7A7A7AAACA7A3A5A8A8A8ACADA9A5A6AAAAAAADAEAAA6A7AAAAAA2E
:402B8000ADAEA9A5A6A9A9A9ACADA8A4A5A8A8A8ABADA8A4A6A9A9A9ADAEAAA6A7ABABABAEB0ABA7A8ABABABAEAFABA6A7AAAAAAADAEAAA5A7AAAAAAADAEAAA6A7ABABABA3
:402BC000AFB0ACA8A9ADADADB0B2ADA9AAADADADB0B1ADA8A9ACACACAFB0ACA7A8ACACACAFB0ACA8A9ADADADB1B2AEAAABAEAFAFB2B3AFABACAFAFAFB2B3AFAAABAEAEAE88
:402C0000B1B2AEA9AAADADADB1B2AEAAABAEAFAFB2B4AFABADB0B0B0B4B5B1ACADB1B0B0B3B4B0ABACAFAFAFB2B3AFAAABAFAFAFB2B3AFABACAFB0B0B3B5B0ACAEB1B1B1C6
:402C4000B4B6B1ADAEB1B1B1B4B5B0ACADB0B0AFB2B3AFAAACAFAFAFB2B3AFABACAFAFB0B3B4B0ACADB0B1B1B4B5B1ACADB0B0B0B3B4B0ABACAFAFAEB1B2AEA9AAADADAD70
:402C8000B1B2ADA9AAAEAEAEB1B3AEAAABAFAFAFB2B3AFAAABAEAEAEB1B2ADA9AAACACACAFB0ABA7A8ABABABAEAFAAA6A7ABABABAEAFABA7A8ABABABAEB0ABA7A8ABAAAAFB
:402CC000ADAEA9A5A6A8A8A8ABACA7A2A3A6A6A6A9AAA6A1A3A6A6A6A9ABA6A2A3A6A6A6A9AAA6A1A2A5A5A5A8A9A49FA0A3A2A2A5A6A19C9DA0A0A0A3A4A09B9DA0A0A0AE
:402D0000A3A4A09B9DA0A0A0A3A49F9B9C9E9E9EA1A29D98999C9B9B9E9F9A95969999999C9D9894959898989B9D9894959898989B9C979394979696999A9590919493930F
:402D40009697928D8E9191919395908C8D9090909394908B8D90908F92938F8A8B8E8E8D90918C87888B8B8A8D8E8984858888888B8C8783848787878A8B87838487878742
:402D80008A8B8681828585858788837F808282818485807C7D7F7F7F82837F7A7B7E7E7E81837E7A7B7E7E7E81827D797A7D7C7C7F807B76777A79797C7D78737477777775
:402DC0007A7B767273767676797B767273767676797A7671727575747778736F6F7272717475706C6D70706F72746F6B6C6F6F6F72746F6B6C6F6F6F72736F6A6B6E6E6E4B
:402E000071726D68696C6B6B6E6F6A66676A69696C6E6965666969696D6E6A65676A6A6A6D6E6965666969696B6C686364676766696A656162656565686965606265656572
:402E4000686A656162666666696A66616265656568696460616363636667625E5F6262626566625E5F6262626667635F606363636768635F606363636667625E5F62616178
:402E80006465615C5D6060606365605C5E6161616566625E5F6262626667635E5F6262626566625D5E6161616465605C5D6060606365605C5E6161616566625E5F626363C3
:402EC0006667635F606363636667625E5F6262616466615D5E6161616466615D5F6262626667635F6064646467686460616464646768645F606363636667625E5F6262622B
:402F00006667635F606364646769656062656565696A666163666666696A65616265656467696460616464646769646062656565696A6662636767676A6B67636467676748
:402F40006A6B676263666666696A656162656565686A6561636666666A6B6763646868686B6C6864656868686B6C676364676666696A666163666666696A666263666667B4
:402F80006A6B6763646868686B6C6864656868686A6C676263666666696A6561626565656869656162656666696A6662636767676A6B676263666666696A6661626565647E
:402FC0006768645F606363636668635F60636364676864606164646467696460616464636667635E5F6262616465615C5D6060606364605B5D6060606365605C5D61616144
:403000006465605C5D60605F62635F5A5B5E5D5D60615C58595C5B5B5E605B57585B5B5B5F605C57585C5C5C5F605B57585B5B5A5D5E5955565858585A5B575253565656B4
:40304000595A565152565656595A565153565656595A5551525555545758534F4F5252525455514C4D50505053544F4B4C4F4F4F53544F4B4C4F4F4F52544F4A4C4E4E4EC8
:4030800051524D48494C4B4B4E4F4A46474949494C4D4944464949494C4D4945464949494C4D4944454848484A4B4742434545454849443F404343434647433E4043434328
:4030C0004647433F404343434647433E3F4242424545413C3D403F3F42433E3A3B3E3E3E41423D393A3D3D3E41423E393B3E3E3E41423E393A3D3D3D40413C37383B3B3B0F
:403100003D3E3A35363939393C3D39353639393A3D3E3A36373A3A3A3D3F3A36373A3A393C3D3934353838373A3B373233363636393B3632333737373A3C37333538383875
:403140003B3C3834353838383A3C373233363636393A353132353535383A353132363636393B3733343737383B3C3833353838373A3C373234363636393A363133363636AB
:40318000393A3632333737373B3C3834353839393C3D3935363939393C3D3934353838383B3C3834353838383B3D39343639393A3D3F3B36383B3C3C3F403C38393C3C3CD0
:4031C0003F413C38393C3C3C3F403C37383C3C3C3F413C383A3D3E3E41433F3B3C4040404345413C3E4141414445413C3D4140404445403C3D4141414446413D3F42434311
:403200004648444041454545494A464243464646494B464243464646494A4642434646464A4B4743454848494C4E4A46474B4B4B4E504C47494C4C4C4F504C48494C4C4C8E
:403240004F504C47494C4C4C50514D494A4E4E4F5254504B4D5051515456524D4F5252525556524D4F5252525556514D4E5252525557534E50535454575955515256565617
:403280005A5B5753545757575A5B5753545757575A5B5752535757575A5C5753555858595C5E5A56575A5B5B5E605B57585B5C5B5F605B57585B5B5B5E5F5B56575B5B5BCF
:4032C0005E5F5B57595C5C5C60615D595B5E5E5E62635F5A5C5F5F5F62635E5A5B5E5E5E61625D595A5D5D5D61625E5A5B5E5F5F6264605B5D6060616465615C5E6161613B
:403300006465605C5D605F5F62635F5A5C5F5F5F62635F5B5C6060606365615C5E6161616566625D5E6161616465615C5D60606063645F5B5C5F5F5F62635F5B5C5F606093
:403340006365605C5E6161616465615D5E6161616465605B5C5F5F5F62635E5A5B5E5E5E61625E5A5B5E5F5F62635F5B5C6060606364605B5D5F5F5F62635F5A5B5E5E5D76
:4033800060615D58595C5C5C5F615C585A5D5D5D60625D595B5E5E5E61625E595B5E5E5D60615D58595C5C5C5E5F5B56585B5A5A5E5F5B56585B5B5B5E605C57595C5C5CFD
:4033C0005F605C58595C5C5B5E5F5B56575A5A5A5D5E5955565959595C5D5954565959595D5E5A56575A5A5B5E5F5B56575A5A5A5D5E5955565959585B5C5853555858585E
:403400005B5C5853555858595C5D595556595A5A5D5E5A55575A5A5A5C5E5954555858585B5C5853545757585B5C5854555858595C5D5955575A5A5A5D5F5A56575A5A5A55
:403440005D5E5A55565959595C5D5954565959595C5D5955565A5A5A5E5F5B57585C5C5C5F615C58595C5C5C5F615C58595C5C5C5F605B57585B5C5C5F605C58595D5D5D93
:4034800061625E5A5C5F5F606364605C5D6060606365605C5D6060606364605B5D6060606365615D5E6262626667635F616464656869656162666666696A6661626565659A
:4034C000696A666163666666696B6763646868696C6E6A66676B6B6B6F706C68696C6C6C70716D68696D6D6D70716D686A6D6D6D71726E6A6C6F70707475716D6F727373DF
:40350000767874707174747478797570717575757879757172757576797B7772747878787C7E7A76777B7B7B7F807C787A7D7D7D80827D797A7D7D7D80827E797B7E7E7E57
:4035400082837F7B7D8081818586827E808484848889858182868686898A868283868686898B8682838787878B8C88848689898A21F805014210864063F811010489A4206D
:4035800001F805010000000000000000000000000000000000000000000000000000000000000000000000000000000000000000000000000000000000000000000000000C
:4035C00000000000000000000000000000000000000000000000000000000000000000000000000000000000000000000000000000000000000000000000000000000000CB
:40360000000000000000000000000000000000000000000000000000000000000000000000000000000000000000000000000000000000000000000000000000000000008A
:403640000000000000000000000000000000000000000000000000000000000000000000000000000000000000000000000000000402000000000000020100007E3F000084
:40368000FF3F000000000000000000000000000000000000000000000000000000000000000000000000000000000000000000006F040000DE0800006F04000002587C002A
:4036C0005696C3000000000000000000000000000000000000000000000000000000000000000000000000000000000000000000000000000000000000000000000000001B
:403700000000000000000000000000000000000000000000000000000000000000000000000000000000000000000000000000000000000000000000000000000000000089
:403740000000000000000000000000000000000000000000000000000000000000000000000000000000000000000000000000000000000000000000000000000000000049
:403780000000000000000000000000000000000000000000000000000000000000000000000000000000000000000000000000000000000000000000000000000000000009
:4037C00000000000000000000000000000000000000000000000000000000000000000000000000000000000000000000000000000000000000000000000000000000000C9
:403800000000000000000000000000000000000000000000000000000000000000000000000000000000000000000000000000000000000000000000000000000000000088
:403840000000000000000000000000000000000000000000000000000000000000000000000000000000000000000000000000000000000000000000000000000000000048
:403880000000000000000000000000000000000000000000000000000000000000000000000000000000000000000000000800000000000000000000000000000000000000
:4038C00000000000000000000000000000000000000000000000000000000000000000000000000000000000000000000000000000000000000000000000000000000000C8
:403900000000000000000000000000000000000000000000000000000000000000000000000000000000000000000000000000000000000000000000000000000000000087
:403940000000000000000000000000000000000000000000000000000000000000000000000000000000000000000000000000000000000000000000000000000000000047
:403980000000000000000000000000000000000000000000000000000000000000000000000000000000000000000000000000000000000000000000000000000000000007
:4039C00000000000000000000000000000000000000000000000000000000000000000000000000000000000000000000000000000000000000000000000000000000000C7
:403A00000000000000000000000000000000000000000000000000000000000000000000000000000000000000000000000000000000000000000000000000000000000086
:403A40000000000000000000000000000000000000000000000000000000000000000000000000000000000000000000000000000000000000000000000000000000000046
:403A80000000000000000000000000000000000000000000000000000000000000000000000000000000000000000000000800002013002561178026010080262013802608
:403AC000C20C8026E00E8026A40A802663171006860880266806806D6606802F2002106F008080262002806F008080262002806F2002806F211A40FE000080260222106657
:403B00000080106E0182802600000000000000000000000000000000000000000000000000000000000000000000000000000000000000000000000000000000000000005E
:403B40000000000000000000000000000000000000000000000000000000000000000000000000000000000000000000000000000000000000000000000000000000000045
:403B800000000000000000000000000000000000000000000000000000000000000000000000000000000000000000000000000043000000F8B500BFF8BC08BC9E46704743
:403BC0004D000000B1050000F8B500BFF8BC08BC9E46704729000000E83B0000C880FF1F88000000500000000000000001FFFFFF7F800000070500000000E02EC05D000085
:403C00001800000000366E01FFFFFF000000000000000000000000000000000000000000000000000000000000000000B03B000000000000000000000000000000000000DF
:403C40000000000000000000000000000000000000000000000000000000000000000000000000000000000000000000EC80FF1F00000000000000000000000000000000BA
:403C80000000000000000000000000000000000000000000000000000000000000000000000000000000000000000000000000000000000000000000000000000000000004
:403CC00000000000000000000000000000000000000000000000000000000000000000000000000000000000000000000000000000000000000000000000000000000000C4
:403D00000000000000000000000000000000000000000000000000000000000000000000000000000000000000000000000000000000000000000000000000000000000083
:403D40000000000000000000000000000000000000000000000000000000000000000000000000000000000000000000000000000000000000000000000000000000000043
:020000040003F7
:0200000480007A
:40000000024F004002520040015A00400164004002650040010501405708014037090140020B0140040C0140020D014002150140021701404318014040190140571A0140C3
:400040004A1B014005400140044101400942014001430140024401400145014006460140024701400648014008490140024C01400B4D0140045001400251014001200A4BB0
:40008000618064409701880F89728A38EA08000108020E011202140417011C01220126012701300133013404360239203E513F044015410446CB470E481C49FF4AFF4BFFB1
:4000C0004EF04F44500C5401580459045A045B045C305D115F0166C06A406B0280018301840185048C068E188F049006920895049A109B049C149D029E08A103A406A60890
:40010000A801AD03AE0AB01EB103B601B704B982BA02BF01C004C504C9FFCA07CBFFCC40CD20CEF0CF05D008D804D904DA04DC11DD01DF01E040E1A8E240E3200002010499
:4001400002010642070808410A040C080F42102211101460162019811B011E881F80204022402728280129012A412B022F203050310832803708380639803A024040464142
:400180004A204C01500351015428562057405C205E885F018C088F01C0DDC2BBC437CA49CC4ECE0BD091D210D6F0AF40B44038823E4158045F011C401F40E40EEC10EA01E4
:4001C000EE08070C0E011001110113061B081C011D0C1F03200223032D012F0E3403370F38203B80580459045C115F018001814484338518860C89088D1C8E238FE190023E
:400200009180943F95FF981C99E79A239B189C1F9D109E20A008A1C0A404A53CA7C2A80CAB04AC03AFE3B010B1C0B31FB40FB62CB738BAA0BB08BE01D602D713D804D904EF
:40024000DB04DC11DD10DF010004018003800701081109080A090E420F021080120113141502180419121A011E042180220526802701281029A12A012E422F023081311874
:40028000320236A1382A39803E04414042015902680169147094731491029280940495949604974099809A029C10A220A341A401A508A680A722AB20AF80C08DC29FC41F9C
:4002C000CA9FCCBFCE4FD601000801040205030A050C090C0A0210101108120413061B101E021F10200422182301241C281C301C310C32023401351037033B083E043F5056
:400300004025410642044401450C46E0480949FF4AFF4BFF4C624DA04EF04F41500C5418580459045A045B045C115D115F016640670269106A306B106D106E106F1285095A
:400340008602871088088D148E03911C92019302970399109A069E05A006A110A201A30CAD0CAF11B007B208B51FBA02BE04D804D904DC11DF01002003800440071408814B
:4003800009800D010E050F0210401114170119251C401E101F0220012108220A23042704284029012E012F023021324236203715380239143E043F804085481049804A082B
:4003C00050205A026002630480028104821087608C018F809004911692869402974099809B019D21A180A220A341A508A602A7A2C0EAC2D9C41ECA91CCEDCE57D00DD20C99
:40040000D601D80CE001E404EC1032803B083F41CC10CEE013409749A680C44012805B0897099B08A680AF08C410D640EA1097097C20DE019C2032104508B420CC08D00108
:40044000E8029620A5082510AB01AF04C820EA80EE101A021B20832086018720B510C640E4709620A50812807102810282108E809620B508C408DC01E202EC08000A0C0A65
:4004800010021C020002102A800040808000800000000000000B0B000000000007001801000A00000000000000000000000000000000000000000000000000000000000050
:4004C00000000000000000000000000000000000000000000000000000000000000000000000000000000000000000000000000000000000000000000000000000000000FC
:4005000000000000000000000000000000000000000000000000000000000000000000000000000000000000000000000000000000000000000000000000000000000000BB
:40054000000000000000000000000000000000000000000000000000000000000000000000000000000000000000000000000000000000000000000000000000000000007B
:40058000000000000000000000000000000000000000000000000000000000000000000000000000000000000000000000000000000000000000000000000000000000003B
:0200000490006A
:0400000000004005B7
:0200000490105A
:04000000BC90ACAF55
:0200000490303A
:020000000059A5
:0200000490402A
:4000000000000000000000000000000000000000000000000000000000000000000000000000000000000000000000000000000000000000000000000000000000000000C0
:400040000000000000000000000000000000000000000000000000000000000000000000000000000000000000000000000000000000000000000000000000000000000080
:400080000000000000000000000000000000000000000000000000000000000000000000000000000000000000000000000000000000000000000000000000000000000040
:4000C0000000000000000000000000000000000000000000000000000000000000000000000000000000000000000000000000000000000000000000000000000000000000
:0200000490501A
:0C00000000012E16106900012E2F10C206
:00000001FF